:020000040800F2
:100000006012002099010008871300089D12000863
:100010008513000875020008E515000800000000BF
:1000200000000000000000000000000001010008C6
:10003000770200080000000045010008B71300081F
:10004000B3010008A9130008B3010008B3010008B8
:1000500079020008AD130008B3010008B3010008DD
:10006000B3010008B3010008B3010008B3010008A0
:10007000B3010008B3010008B3010008B301000890
:10008000B3010008B3010008B3010008B301000880
:10009000B3010008B3010008B3010008B301000870
:1000A000B3010008B3010008B3010008B301000860
:1000B000B3010008B3010008B3010008B301000850
:1000C000B3010008B3010008B3010008B301000840
:1000D000B3010008B3010008B3010008B301000830
:1000E000B3010008B3010008B3010008DFF80CD029
:1000F00000F088F80048004705160008601200204C
:10010000224B19680868B0E8F00F80F30988BFF344
:100110006F8F4FF0000080F311884EF00D0E704786
:100120000000000006480068006880F3088862B696
:1001300061B6BFF34F8FBFF36F8F00DF00BF00BF0B
:1001400008ED00E0EFF30980BFF36F8F0F4B1A68E3
:1001500020E9F00F106008B54FF0500080F31188CF
:10016000BFF34F8FBFF36F8F01F0FCFD4FF0000026
:1001700080F31188BDE8084019680868B0E8F00FFE
:1001800080F30988BFF36F8F704700BF1C00002009
:10019000EFF3058070470000064880470648004797
:1001A000FEE7FEE7FEE7FEE7FEE7FEE7FEE7FEE727
:1001B000FEE7FEE72D140008ED00000840EA010309
:1001C0009B0703D009E008C9121F08C0042AFAD20D
:1001D00003E011F8013B00F8013B521EF9D27047D1
:1001E000D2B201E000F8012B491EFBD27047002279
:1001F000F6E710B513460A4604461946FFF7F0FF26
:10020000204610BD064C074D06E0E06840F00103B3
:1002100094E8070098471034AC42F6D3FFF76AFF22
:1002200098200008B820000870B50446006881686E
:10023000C943C9071CD1816821F00101816000F028
:1002400035FB05460FE000BF00F030FB401B0228E5
:1002500009D9A06A40F01000A062E06A40F00100F5
:10026000E062012070BD20688068C043C007EBD009
:10027000002070BDFEE7704700F0AEB9064A0021CD
:10028000D16106490A6942F002020A6148610869BF
:1002900040F04000086170475001002000200240FB
:1002A000044B0022DA61044A136943F0010313612D
:1002B00001807047500100200020024014480022B5
:1002C000C168CB06134904D5CA6942F00202CA616B
:1002D0001022C3685B0705D5CB6943F00103CB61EE
:1002E00042F00402C369DB0707D0CB6943F0040383
:1002F000CB61C16921F00101C161A2F580710139B1
:1003000001D0C2607047C16921F00101C16170472D
:100310000020024050010020F8B50024009490F81D
:1003200024202546012A12D0012280F824204A6880
:100330001F23072A0DD20668776B521E02EB82023A
:1003400093409F430B6893401F43776319E002205B
:10035000F8BD06680D2A0AD2376BD21F02EB820263
:1003600093409F430B6893401F43376309E0F76A4C
:100370000D3A02EB820293409F430B6893401F4368
:10038000F7620A68072306680A2A0AD3F7680A3A56
:1003900002EB420293409F438B6893401F43F760F8
:1003A00008E0376902EB420293409F438B68934019
:1003B0001F4337610A68102A01D0112A20D1124B3D
:1003C00002689A4217D193681B0219D4936843F4C8
:1003D000000393600968102912D10C490C4A09687E
:1003E000B1FBF2F101EB8101490000E0491E0091EF
:1003F0000029FBD104E0816A41F0200181620124DF
:1004000080F824502046F8BD002401401800002048
:1004100040420F002DE9F0414FF0000704003D4637
:100420007ED0A06A002628B9E66284F824602046BF
:1004300000F07EF82046FFF7F7FEA16AC90600D457
:1004400020B1A06A40F01000A06269E0A16A21F426
:10045000885141F00201A1626268E169E3680A43E0
:1004600047EA43010A43A1684FF48077B94209D0B3
:10047000012907D05FF00001D4F814C0BCF1010FCE
:1004800002D00AE03946F7E7F3B1A36A43F020034C
:10049000A362E36A43F00103E3622368D3F804C074
:1004A0002CF4694C4CEA010CC3F804C021688B6839
:1004B000DFF870C003EA0C0313438B60A168B942F4
:1004C0000BD0012909D00CE0DFF85CC0A3690CEB6C
:1004D00043330B4343F40061DFE7218A0D05A5F5A3
:1004E00080152168CB6A23F470032B43CB6221680B
:1004F00089680E4B1940914208D1E662A16A21F049
:10050000020141F00101A162BDE8F081A06A20F082
:10051000020040F01000A062E06A40F00100E062DA
:100520000120F1E7FDF7E1FF00E0FFFFFE0E1FFFF6
:1005300000B585B0002100910191029103910068FE
:100540000E49884218D10E48816941F400718161D9
:10055000816901F400710491816941F004018161B4
:100560008069694600F00400049002200090032096
:100570000190044800F0B6F805B000BD0024014029
:10058000001002400008014010B5040002D060795C
:1005900010B106E0012010BD00202071204600F0BF
:1005A00005F801206071002010BD000008B500684A
:1005B0000649884208D10648416941F0400141613D
:1005C000406900F04000009008BD0000003002408B
:1005D00000100240704700002DE9F0413E4DE868F0
:1005E0003E4CC0064FF0FF374FF0000602D4E868DB
:1005F000400708D5D4F80880A760FFF75FFE4046A3
:1006000000F06EF82670E868800653D52020E86078
:100610002078F8B1207801281DD02078022833D026
:100620006068401E60606068B0B3A068801CA06015
:10063000A06821696269090C41EA0241120C21613A
:100640006261296921F0010129612169626989B228
:10065000FFF726FE2EE06068401E6060606868B1AB
:10066000A068FFF7B7FFA06800F58060A060296967
:1006700021F002012961FFF701FE1BE03846A76067
:100680002670FFF7A7FF15E0286920F00400286115
:100690000020FFF79FFF0CE0FFE72078032817D02A
:1006A00020780428A06815D0B0F10600FFF792FF6B
:1006B000A76026702078002808D1286920F007005C
:1006C0002861286920F4A05028612676BDE8F081D1
:1006D000A068EBE7801EE9E70020024050010020FF
:1006E000704700002DE9F84FDFF890A100220AF1D1
:1006F000040B144601274FF00F090BF1040E00BF45
:100700000B6807FA04F52B40AB4274D1DFF870C1D7
:100710004E68A6EB0C0866452BD00DDC032E34D0BA
:1007200005DC36B3012E19D0022E2FD11BE0112E7D
:1007300016D0122E2AD119E0B8F5881F19D006DC80
:10074000B8F5803F15D0B8F5801F1FD111E0B8F57E
:10075000001F0ED0B8F5041F18D10AE0CA6815E0D2
:10076000CA68121D12E0CA6808320FE0CA680C326B
:100770000CE08A682AB1012A4FF0080203D04561D3
:1007800004E0042202E0056100E00022FF2B01D812
:10079000064601E000F104064FEA840501D9A5F1FF
:1007A0002005D6F800C009FA05F82CEA080C02FA70
:1007B00005F54CEA050CC6F800C04D68ED0057D5AC
:1007C000304DAE6946F00106AE61AD6924F0030616
:1007D00005F0010500952C4D06EB050CDCF80850E2
:1007E000A6074FEA167809FA08F6B543274EB04235
:1007F00002D1002610E03BE0254EB04201D1012697
:100800000AE0244EB04201D1022605E0224EB04259
:1008100001D1032600E0042606FA08F62E43CCF8A0
:1008200008604D68DAF80060ED03554601D51E43B7
:1008300000E09E432E604D68DBF80060AD035D462E
:1008400001D51E4300E09E432E604D68DEF8006037
:10085000ED02754601D51E4300E09E432E604D68B3
:10086000AD020E4D2E6801D51E4300E09E432E6062
:10087000641C102CFFF444AFBDE8F88F0004014065
:10088000000011100010024000000140000801406B
:10089000000C014000100140001401400C04014014
:1008A0000AB1016170470904FBE700000148806854
:1008B000704700000C00002070B5040011D02168C2
:1008C0004CF6CC400860216845F255500860D4E9E8
:1008D000000141602168A0688860FFF7E7FF0546D6
:1008E00009E0012070BD00BFFFF7E0FF401B30288A
:1008F00001D9032070BD2068C0680028F4D12168A8
:100900004AF6AA200860002070BD000002488168F5
:1009100002781144816070470C000020074810B530
:10092000016841F010010160032000F091F80F20F0
:1009300000F006F800F024F8002010BD002002406E
:1009400070B50D4D04464FF47A712878B1FBF0F084
:100950000A490968B1FBF0F000F022FC48B9102CFC
:1009600007D200222146501E00F052F800206C6091
:1009700070BD012070BD00000C0000201800002098
:100980001B4808B5816941F001018161816901F06D
:1009900001010091C16941F08051C161C06900222B
:1009A00000F0805000900F21901E00F031F80022DE
:1009B0000521012000F02CF8012000F01DF8002294
:1009C0000521042000F024F8042000F015F805218A
:1009D0000022084600F01CF8052000F00DF805483C
:1009E000416821F0E06141F00071416008BD000004
:1009F000001002400000014000F01F020121914060
:100A00004009800000F1E020C0F8001170470000AC
:100A1000F0B40E4B1B680C46C3F30223C3F1070569
:100A2000042D00D90425191D072901D2002300E057
:100A3000DB1E012606FA05F1491E214099409E4021
:100A4000761E16403143F0BC00F09EBC0CED00E079
:100A5000064900F0070208684FF6FF03184040EA15
:100A60000220034A10430860704700000CED00E0CC
:100A70000000FA057047000010B5054C2068C0035F
:100A800004D5FFF7F7FF4FF48030206010BD000061
:100A9000140401402DE9F84305460078354CC007A1
:100AA00054D0E0690026C00008D4E06940F08050CE
:100AB000E061E069012600F0805000902E48016856
:100AC000C90512D40168804641F480710160FFF7C6
:100AD000EDFE074605E000BFFFF7E8FEC01B6428F7
:100AE00023D8D8F80000C005F6D5206A10F440706D
:100AF00021D0A98801F4407181421CD0206A1F498D
:100B0000012220F440700A6000220A602062C007BF
:100B100011D0FFF7CBFE074641F2883808E000BF4E
:100B2000FFF7C4FEC11B414502D90320BDE8F8838D
:100B3000206A8007F4D5206A696820F44070084371
:100B400020621EB1E06920F08050E06128788007C3
:100B500005D56068A96820F44040084360602878A3
:100B6000C00605D56068E96820F48000084360602D
:100B70000020DBE7001002400070004040044242C9
:100B80002DE9F047DFF8548105460E46D8F80000FD
:100B900000F00700B0420CD2D8F8001021F0070195
:100BA0003143C8F80010D8F8000000F00700B04248
:100BB0006FD128684A4C810712D5400703D5606879
:100BC00040F4E06060602878000703D5606840F476
:100BD000605060606068A96820F0F00008436060C1
:100BE0002878C00744D06868012816D021680228F8
:100BF00016D0890700294CDA616821F0030101430E
:100C00006160FFF753FE6968074641F288300129A9
:100C10000ED00229814618D026E021688903E9E731
:100C20008901E7E7FFF742FEC11B494501D918E0FA
:100C300081466068C0F381000128F3D118E000BF4D
:100C4000FFF734FEC11B49450BD86068C0F3810033
:100C50000228F5D10CE000BFFFF728FEC11B494573
:100C600002D90320BDE8F087606810F00C0FF3D1C3
:100C7000D8F80010404601F00701B1420BD90168D5
:100C800021F0070131430160006800F00700B04225
:100C900001D00120E6E72878400705D56068E968BB
:100CA00020F4E060084360602878000706D560689B
:100CB000296920F4605040EAC100606000F036F815
:100CC0006168084AC1F30311515CC84006490860D5
:100CD0000F20FFF735FE0020C4E70000002002408F
:100CE0000010024074200008180000200448054944
:100CF00000684968044AC1F30221515CC84070474A
:100D00001800002000100240842000080448054913
:100D100000684968044AC1F3C221515CC840704769
:100D200018000020001002408420000812A185B0A5
:100D30000FC98DE80F0014A0144A00680490516890
:100D4000134801F00C03042B10D0082B0ED1C1F373
:100D50008343C9031DF803000AD5516804AAC1F3EF
:100D60004041515C0A4A5043B0FBF1F005B0704776
:100D700008494843FAE7000002030405060708098A
:100D80000A0B0C0D0E0F10100102000000100240A3
:100D900000127A0000093D002DE9F84F0446007862
:100DA000B94DC00748D06868C0F38100012807D05A
:100DB0006868C0F38100022809D16868C00306D5BD
:100DC0002868800338D5606800286FD034E06068F8
:100DD000B0F5803F0BD010B1B0F5A02F11D028682E
:100DE00020F480302860286820F4802002E0286801
:100DF00040F480302860606888B1FFF757FD0646F0
:100E000009E0286840F480202860F0E7FFF74EFDF5
:100E1000801B642875D828688003F7D50CE0FFF79D
:100E200045FD064605E000BFFFF740FD801B642836
:100E3000F0D828688003F7D42078944E80074FF0CC
:100E400001094FF000083BD5686810F00C0F07D07F
:100E50006868C0F38100022809D16868C00306D41D
:100E60002868800714D5206901281FD110E0206967
:100E7000B0B1C6F80090FFF719FD074605E000BFC6
:100E8000FFF714FDC01B0228C4D828688007F7D5D7
:100E90002868616920F0F80040EAC10028600FE08E
:100EA000C6F80080FFF702FD074606E0E9E000BF54
:100EB000FFF7FCFCC01B022823D828688007F7D462
:100EC000207800072CD57248A169D9B1C0F80090EC
:100ED000FFF7ECFC074604E0FFF7E8FCC01B022824
:100EE0000FD8686A8007F7D56A484FF4FA5100684E
:100EF000B0FBF1F0009000BF0098411E0091FAD2C3
:100F00000EE080E0C0F80080FFF7D0FC074604E068
:100F1000FFF7CCFCC01B022875D8686A8007F7D49D
:100F20002078400760D5E8690027C00008D4E86948
:100F300040F08050E861E869012700F0805000909F
:100F400055480168C90513D40168834641F480718E
:100F50000160FFF7ABFC824606E000BFFFF7A6FC8E
:100F6000A0EB0A0064284ED8DBF80000C005F5D5D8
:100F7000E06801280AD008B1052813D0286A20F0BB
:100F800001002862286A20F0040002E0286A40F08C
:100F900001002862E06841F2883B98B1FFF786FCC7
:100FA00082460BE0286A40F004002862EEE700BFAA
:100FB000FFF77CFCA0EB0A0159455AD8286A800744
:100FC000F6D50CE0FFF772FC824605E0FFF76EFCF9
:100FD000A0EB0A0159454CD8286A8007F6D41FB106
:100FE000E86920F08050E861E06988B36968C1F37E
:100FF0008101022945D00228C6F8608004D0FFF79D
:1010000055FC044638E034E0FFF750FC074604E0A6
:10101000FFF74CFCC01B02282BD828688001F7D4AE
:10102000206AB0F5803F05D16868A16820F40030DF
:1010300008436860D4E908010843696821F4741121
:1010400008436860C6F86090FFF730FC044606E08D
:1010500015E000BFFFF72AFC001B022809D828680A
:101060008001F7D50BE000BFFFF720FC001B022832
:1010700002D90320BDE8F88F28688001F4D400204D
:10108000F8E70120F6E700000010024000004242AD
:1010900080044242180000200070004070B5040037
:1010A00005D00025A56294F8510010B104E001209C
:1010B00070BD204600F034F8022084F8510020680A
:1010C000016821F040010160D4E901010843D4E93D
:1010D00003121143084361690843218B01F4007135
:1010E0000843E1690843216A0843A16A084321686B
:1010F0000860A069042101EA1040616A0843216880
:1011000048602168E06A08612068C16921F40061D3
:10111000C1616565012084F85100002070BD0000A8
:1011200030B585B0002400940194029403940068C3
:10113000174988422AD11748816941F48051816159
:10114000816901F480510491816941F00801816154
:101150008069114D00F008000490282000900220C2
:1011600001900320039069462846FFF7BBFA102040
:10117000CDE90004694628460294FFF7B3FA074810
:10118000416841F0E06141F00101416005B030BDCE
:101190000030014000100240000C014000000140FE
:1011A00010B5401EB0F1807F01D3012010BD4FF07B
:1011B000E02460610F21601700F0E6F80020A061D4
:1011C00007202061002010BD70B5040004D094F801
:1011D0003900002510B106E0012070BD84F83850B8
:1011E000204600F023F8242084F839002068C168E4
:1011F00021F40051C160204600F03CF920680169EB
:1012000021F4904101612068416921F02A01416186
:101210002068C16841F40051C160E563202084F872
:10122000390084F83A00002070BD000030B585B068
:1012300000240094019402940394006814498842A5
:1012400024D11448816941F480418161816901F4AC
:1012500080410491816941F00401816180690E4DF2
:1012600000F0040004904FF4007000900220019000
:101270000320039069462846FFF734FA2815CDE984
:101280000004694628460294FFF72CFA05B030BDE9
:10129000003801400010024000080140FEE7000055
:1012A0003EB500240D480094019402948460C4600B
:1012B000094944610160012505614FF460214460E2
:1012C000C161FFF7A7F81020CDE900056946029437
:1012D0000248FFF721F83EBD002401407C000020B9
:1012E00030B585B00024174800940194029403940B
:1012F000816941F020018161816901F0200104913F
:10130000816941F004018161816901F00401049166
:10131000816941F00801816180690B4D00F008008E
:101320000490002201212846FFF7BAFA0220012189
:1013300003900091CDE9011469462846FFF7D2F9E0
:1013400005B030BD00100240000801400C480B49B8
:101350004FF4007201604FF482714160002181609E
:10136000C1600161C0E905120822C0E9072141629C
:1013700081620A21C162FFF791BE00000030014086
:10138000B8000020FEE770470907090E002806DABA
:1013900000F00F0000F1E02080F8141D704700F10C
:1013A000E02080F800147047FFF766BB704701200B
:1013B00000F076F9FBE710B5FFF7A8FABDE810409A
:1013C00000F07AB930B593B028216846FEF70FFFD8
:1013D00014210AA8FEF70BFF00240F940920012115
:1013E00010940090119412944FF48030049106915F
:1013F000CDE901040225CDE907504FF4E010099032
:101400006846FFF7C9FC0F20CDE90A056802CDE95F
:101410000C4002210AA80E94FFF7B2FBA80311901A
:101420000F950FA8FFF736FB13B030BD0D480168CC
:1014300041F00101016041680B4A114041600168BF
:101440000A4A11400160016821F48021016041686D
:1014500021F4FE0141604FF41F0181600449C00383
:1014600008607047001002400000FFF8FFFFF6FE22
:1014700008ED00E02DE9F041044600680169E268EA
:1014800021F44051114301612169A0680843616959
:1014900008432168CA6841F20C639A430243CA6058
:1014A00020684169A26921F44071114341614C49AE
:1014B00020686425322688423CD1FFF727FC00EBE8
:1014C000C00101EB001061688900B0FBF1F7FFF784
:1014D0001DFC00EBC00101EB00106168B046890003
:1014E000B0FBF1F0B0FBF5F06FF01801484307EBEB
:1014F000800106EB0110B0FBF5F000F0F006FFF7FD
:1015000005FC00EBC00101EB001061688900B0FB35
:10151000F1F0B0FBF5F006EB0016FFF7F7FB00EB80
:10152000C00101EB001061688900B0FBF1F7FFF723
:10153000EDFB3BE0FFF7DAFB00EBC00101EB001035
:1015400061688900B0FBF1F7FFF7D0FB00EBC00149
:1015500001EB00106168B0468900B0FBF1F0B0FB10
:10156000F5F06FF01801484307EB800106EB01101E
:10157000B0FBF5F000F0F006FFF7B8FB00EBC001A0
:1015800001EB001061688900B0FBF1F0B0FBF5F0F1
:1015900006EB0016FFF7AAFB00EBC00101EB001001
:1015A00061688900B0FBF1F7FFF7A0FB00EBC00119
:1015B00001EB001061688900B0FBF1F0B0FBF5F0C1
:1015C0006FF01801484307EB800108EB0110B0FBF6
:1015D000F5F0216800F00F0030448860BDE8F0812C
:1015E00000380140FEE702E008C8121F08C1002AC7
:1015F000FAD170477047002001E001C1121F002A94
:10160000FBD1704786B0FFF789F9FFF7DBFEFFF7E4
:1016100067FE1B48194901600621416040F6FF71D1
:101620008160FFF749F91849164808600846FEF737
:10163000ABFFFFF78BFEFFF733FE11481349643011
:101640000C2201604FF4E131416000218160C160F2
:10165000C0E904128161C161FFF7B6FD14220C4993
:101660006846FEF7ABFD0021684600F02FF80649FA
:10167000091F086000F01BF8FEE700000030004082
:10168000AC0000200030024004000020003801407F
:101690006020000801460020842900D0C81C704743
:1016A00010B500B9012000F0FBFA002010BD10B504
:1016B00000F01CFB002010BD10B500F0FDFB012860
:1016C00003D0BDE8104000F0B5BB10BD3EB50446E8
:1016D0000D46B0F90800FFF7DDFF02A9CDE90001D2
:1016E000208A2B4682B2D4E9001000F0B9FB012811
:1016F00001D000203EBD02983EBD00002DE9F04122
:10170000184C0F460546E6682068001D00F012FAE6
:1017100038B9206890F82C10012088402169814355
:101720002161681C07D137B12168BDE8F0410E483E
:10173000091D00F037BA20683544B542456021687C
:1017400005D2A06BBDE8F041091D00F013BA606B33
:10175000091D00F00FFAA06A854200D2A562BDE81B
:10176000F08100001C0000204C0200202DE9F04117
:10177000054600F023FA2E4CA068401CA0602068AB
:101780002C4F10B1606940B32DE02560A06801289E
:1017900029D1002606EB860007EB800000F0DCF97B
:1017A000761C072EF6D323488C3000F0D5F921485B
:1017B000A03000F0D1F91F48B43000F0CDF91D4839
:1017C000C83000F0C9F91B48DC3000F0C5F91948F1
:1017D0008C3060631430A06305E02068E96AC06A59
:1017E000884200D82560606A401C6062E96A012076
:1017F000226988401043206101EB810007EB8000E3
:10180000291D00F0CFF900F0F9F9606900280CD02B
:101810002068E96AC06A884207D207494FF08050C1
:101820000860BFF34F8FBFF36F8FBDE8F0810000FA
:101830001C0000207001002004ED00E070B5114E86
:10184000114C17E000F086FA3068B8B100F0A6FB42
:1018500000F0B4F9F068C568281D00F06BF9A068C5
:10186000401EA0606068401E606000F0C7F9284616
:1018700000F00CF860680028E4D170BD00F08EFB29
:10188000F8E70000380200201C00002010B50446D4
:10189000006B00F0C7F92046BDE8104000F0C2B967
:1018A00010484FF44061420706D0C01D0D4920F09A
:1018B0000700411AC1F540610B4A00230144C2E907
:1018C00000030839103A21F0070111604B600B60EA
:1018D0000B1AC0E9001393604FF000405360D060D2
:1018E000704700006002002068000020074C4FF0A5
:1018F0008056074DFFF7A2FF20680128FAD92E6015
:10190000BFF34F8FBFF36F8FF4E70000700100202B
:1019100004ED00E02DE9F0479A46DDE909848146AF
:101920006FF00303206B03EB82021044089D20F04C
:101930000706700707D0502080F31188BFF34F8F40
:10194000BFF36F8FFEE723180A5C83F834200A5C2C
:1019500012B1401C1028F6D3002784F84370072DDD
:1019600000D30625E562C4E91157201D00F0FFF8F9
:1019700004F1180000F0FBF82461C5F1070064626F
:10198000A061E76484F8507052464946304600F042
:10199000BFF82060B8F1000F01D0C8F80040BDE8E2
:1019A000F087000030B5114900E011460A68824214
:1019B000FBD34B685C18844203D1406818444860EC
:1019C000084643681C18944209D1084C103C24680E
:1019D000A24209D052681A4442600A681268026042
:1019E000814200D0086030BD0460F9E76800002043
:1019F0000648416B096829B1416BC968C9684968E3
:101A0000816270474FF0FF31FAE700001C000020B0
:101A100008484068401C4FF0500080F3118804D003
:101A2000BFF34F8FBFF36F8FFEE7BFF34F8FBFF34F
:101A30006F8FFEE7700000202DE9F041054600277A
:101A400000F088F9314E306808B9FFF729FFF068D7
:101A500005424BD1C5B3083568070ED005F0070025
:101A6000C0F108000544680707D0502080F31188B2
:101A7000BFF34F8FBFF36F8FFEE72DB370688542C2
:101A800034D82248103001460C6801E020460C464C
:101A90006168A94202D221680029F7D131688C42DD
:101AA00024D007682168016060680837411B10294D
:101AB0000FD96019420708D0502080F31188BFF376
:101AC0004F8FBFF36F8FFEE710E041606560FFF757
:101AD00069FF61687068401A7060B268904200D215
:101AE000B060F06801430020C4E9000100F056FA3C
:101AF000780707D0502080F31188BFF34F8FBFF3D2
:101B00006F8FFEE73846BDE8F081000058000020E6
:101B100010B5031F4FF080741C601B1F21F00101E2
:101B20001960191F024B0B60143940380A6010BD50
:101B3000111A0008D0E9013201699A60D0E9012345
:101B40005A604A68824201D182684A60002202617A
:101B50000868401E0860704700F108014FF0FF322E
:101B6000C0E90112C16001610021016070470021DC
:101B70000161704730B50B685A1C02D000F10802B1
:101B800002E0026904E02246546825689D42FAD9C1
:101B900053684B6099608A60516008610168491C14
:101BA000016030BD42684A6093688B6093685960F9
:101BB000916008610168491C01607047502080F302
:101BC0001188BFF34F8FBFF36F8F0A494868401CDD
:101BD000486001280CD10848006810F0FF0F07D0BA
:101BE000502080F31188BFF34F8FBFF36F8FFEE754
:101BF000704700007000002004ED00E008494868CC
:101C000028B1401E486001D180F3118870475020F0
:101C100080F31188BFF34F8FBFF36F8FFEE7000093
:101C20007000002070B5002827D0144DA0F10804E2
:101C30006168E868014207D1502080F31188BFF342
:101C40004F8FBFF36F8FFEE722683AB1502080F3C9
:101C50001188BFF34F8FBFF36F8FFEE78143616041
:101C600000F078F860686968084468602046FFF70B
:101C700099FEBDE8704000F091B970BD5800002099
:101C800006484FF47A710068B0FBF1F14FF0E020A4
:101C9000491E4161072101617047000018000020C2
:101CA00010B5020014D00F48006B38B1502080F3FB
:101CB0001188BFF34F8FBFF36F8FFEE700F04AF834
:101CC00000211046FFF71AFD00F068F9002807D13F
:101CD00005494FF080500860BFF34F8FBFF36F8FFF
:101CE00010BD00001C00002004ED00E01CB51548EC
:101CF0000024CDE900402346802213A1144800F0BF
:101D0000AFF8012809D0401C1AD1502080F3118867
:101D1000BFF34F8FBFF36F8FFEE7502080F3118822
:101D2000BFF34F8FBFF36F8F06484FF0FF312C3852
:101D3000816201214161C460BDE81C4000F040B8EF
:101D40001CBD00004800002049444C450000000034
:101D5000ED1800080248016B491C01637047000040
:101D60001C0000201448016B11B10121C1617047B2
:101D70000021C1610169B1FA81F1C1F11F0101EBDB
:101D800081020E4951F822306BB101EB820101F161
:101D900008034A6852684A609A4201D152684A6010
:101DA000D16801607047502080F31188BFF34F8FD6
:101DB000BFF36F8FFEE700001C00002070010020C1
:101DC0001CB5194908780190FF20087008788DF833
:101DD00000009DF80000154A00F050001070072028
:101DE000906005E09DF800305B008DF80030401EEB
:101DF0009DF800301B06F5D4000200F4E06090600E
:101E0000019808700A48016841F470010160016896
:101E100041F070410160FFF733FF00205060FEF792
:101E200081F900201CBD000000E400E070000020EB
:101E300020ED00E010B5502080F31188BFF34F8FE4
:101E4000BFF36F8F00F046F818B104494FF080508F
:101E50000860002080F3118810BD000004ED00E050
:101E60002DE9FF5F8346DDE90E87994616468A46CF
:101E70009000FFF7E1FD05001AD05420FFF7DCFDCC
:101E8000040012D025630021CDE90241CDE900878D
:101E90004B46324651465846FFF73CFD2046FFF779
:101EA00065FC012004B0BDE8F09F2846FFF7BAFEAC
:101EB0004FF0FF30F6E700000548416919B1006BAB
:101EC00018B10020704701207047022070470000C1
:101ED0001C0000202DE9F0412E4C0027206B40B162
:101EE000A069401CA061E06900B101273846BDE847
:101EF000F081E668761CE66013D1606B006838B14B
:101F0000502080F31188BFF34F8FBFF36F8FFEE730
:101F1000606BA16B6163A063206A401C2062FFF7C5
:101F200067FDA06ADFF87080864209D3606B0068A5
:101F300080B1606BC068C568686886420DD2A062D7
:101F40002068C06A00EB800158F821000128CAD936
:101F50000127C8E74FF0FF30F1E7281DFFF7EAFD42
:101F6000A86A18B105F11800FFF7E4FDE86A01213D
:101F7000226981401143216100EB800108EB81005F
:101F8000291DFFF70FFEE86A2168C96A8842CDD390
:101F90000127CBE71C000020700100202DE9F0474D
:101FA0002C4D00242746286B38B1FFF707FE286B1D
:101FB000401E2863286B40B146E0502080F3118812
:101FC000BFF34F8FBFF36F8FFEE7A968224E01204A
:101FD000D1B3A6F1B40980463068E8B1F068C468AE
:101FE00004F11800FFF7A6FD201DFFF7A3FDE06A2E
:101FF0002A6908FA00F11143296100EB800109EB1D
:102000008100211DFFF7CEFDE06A2968C96A884278
:10201000E2D3C5F81C80DFE70CB1FFF7E9FCAC693F
:1020200044B14646FFF756FF00B1EE61641EF9D198
:102030000020A861E86938B108490127380708601D
:10204000BFF34F8FBFF36F8FFFF7D8FD3846BDE862
:10205000F08700001C0000202402002004ED00E0B6
:102060008C200008AF1300080000000000000000F2
:1020700080000000000000000000000001020304D6
:102080000607080900000000010203046465666198
:10209000756C745461736B00B82000080000002058
:1020A0007C000000E6150008342100087C000020B8
:1020B000E4110000F6150008000000000000000018
:1020C00000000000010000001000000000000000FF
:1020D00000A24A0400000000000000000000000010
:1020E00000000000000000000000000000000000F0
:1020F00000000000000000000000000000000000E0
:1021000000000000000000000000000000000000CF
:1021100000000000000000000000000000000000BF
:10212000000000000000000000000000AAAAAAAA07
:0421300000000000AB
:04000005080000ED02
:00000001FF
